{
  "_format": "hh-sol-artifact-1",
  "contractName": "LandRecords",
  "sourceName": "contracts/LandRecords.sol",
  "abi": [
    {
      "inputs": [],
      "stateMutability": "nonpayable",
      "type": "constructor"
    },
    {
      "inputs": [
        {
          "internalType": "uint256",
          "name": "",
          "type": "uint256"
        }
      ],
      "name": "BuyRequest",
      "outputs": [
        {
          "internalType": "uint256",
          "name": "landId",
          "type": "uint256"
        },
        {
          "internalType": "address",
          "name": "buyerId",
          "type": "address"
        },
        {
          "internalType": "address",
          "name": "sellerId",
          "type": "address"
        },
        {
          "internalType": "enum LandRecords.reqStatus",
          "name": "requestStatus",
          "type": "uint8"
        }
      ],
      "stateMutability": "view",
      "type": "function"
    },
    {
      "inputs": [],
      "name": "InspectorCount",
      "outputs": [
        {
          "internalType": "uint256",
          "name": "",
          "type": "uint256"
        }
      ],
      "stateMutability": "view",
      "type": "function"
    },
    {
      "inputs": [],
      "name": "LandCount",
      "outputs": [
        {
          "internalType": "uint256",
          "name": "",
          "type": "uint256"
        }
      ],
      "stateMutability": "view",
      "type": "function"
    },
    {
      "inputs": [],
      "name": "ReturnAllLandList",
      "outputs": [
        {
          "internalType": "uint256[]",
          "name": "",
          "type": "uint256[]"
        }
      ],
      "stateMutability": "view",
      "type": "function"
    },
    {
      "inputs": [],
      "name": "ReturnAllUserList",
      "outputs": [
        {
          "internalType": "address[]",
          "name": "",
          "type": "address[]"
        }
      ],
      "stateMutability": "view",
      "type": "function"
    },
    {
      "inputs": [
        {
          "internalType": "uint256",
          "name": "",
          "type": "uint256"
        }
      ],
      "name": "TransferRequest",
      "outputs": [
        {
          "internalType": "uint256",
          "name": "landId",
          "type": "uint256"
        },
        {
          "internalType": "address",
          "name": "sellerId",
          "type": "address"
        },
        {
          "internalType": "address",
          "name": "buyerId",
          "type": "address"
        },
        {
          "internalType": "enum LandRecords.reqStatus",
          "name": "requestStatus",
          "type": "uint8"
        }
      ],
      "stateMutability": "view",
      "type": "function"
    },
    {
      "inputs": [
        {
          "internalType": "uint256",
          "name": "_requestId",
          "type": "uint256"
        }
      ],
      "name": "acceptRequest",
      "outputs": [],
      "stateMutability": "nonpayable",
      "type": "function"
    },
    {
      "inputs": [
        {
          "internalType": "uint256",
          "name": "_area",
          "type": "uint256"
        },
        {
          "internalType": "string",
          "name": "_address",
          "type": "string"
        },
        {
          "internalType": "string",
          "name": "_surveyNum",
          "type": "string"
        },
        {
          "internalType": "string",
          "name": "_document",
          "type": "string"
        }
      ],
      "name": "addLand",
      "outputs": [],
      "stateMutability": "nonpayable",
      "type": "function"
    },
    {
      "inputs": [
        {
          "internalType": "address",
          "name": "_address",
          "type": "address"
        },
        {
          "internalType": "string",
          "name": "_name",
          "type": "string"
        },
        {
          "internalType": "uint256",
          "name": "_age",
          "type": "uint256"
        },
        {
          "internalType": "string",
          "name": "_city",
          "type": "string"
        }
      ],
      "name": "addLandInspector",
      "outputs": [
        {
          "internalType": "bool",
          "name": "",
          "type": "bool"
        }
      ],
      "stateMutability": "nonpayable",
      "type": "function"
    },
    {
      "inputs": [
        {
          "internalType": "address",
          "name": "",
          "type": "address"
        }
      ],
      "name": "addressToInspector",
      "outputs": [
        {
          "internalType": "uint256",
          "name": "id",
          "type": "uint256"
        },
        {
          "internalType": "address",
          "name": "_inspectorAddress",
          "type": "address"
        },
        {
          "internalType": "string",
          "name": "name",
          "type": "string"
        },
        {
          "internalType": "uint256",
          "name": "age",
          "type": "uint256"
        },
        {
          "internalType": "string",
          "name": "city",
          "type": "string"
        }
      ],
      "stateMutability": "view",
      "type": "function"
    },
    {
      "inputs": [
        {
          "internalType": "address",
          "name": "",
          "type": "address"
        }
      ],
      "name": "addressToUser",
      "outputs": [
        {
          "internalType": "string",
          "name": "name",
          "type": "string"
        },
        {
          "internalType": "string",
          "name": "email",
          "type": "string"
        },
        {
          "internalType": "address",
          "name": "id",
          "type": "address"
        },
        {
          "internalType": "uint256",
          "name": "age",
          "type": "uint256"
        },
        {
          "internalType": "string",
          "name": "city",
          "type": "string"
        },
        {
          "internalType": "string",
          "name": "document",
          "type": "string"
        },
        {
          "internalType": "string",
          "name": "aadharCard",
          "type": "string"
        },
        {
          "internalType": "string",
          "name": "panCard",
          "type": "string"
        },
        {
          "internalType": "bool",
          "name": "isVerified",
          "type": "bool"
        }
      ],
      "stateMutability": "view",
      "type": "function"
    },
    {
      "inputs": [],
      "name": "allTransferRequestList",
      "outputs": [
        {
          "internalType": "uint256[]",
          "name": "",
          "type": "uint256[]"
        }
      ],
      "stateMutability": "view",
      "type": "function"
    },
    {
      "inputs": [],
      "name": "buyRequestCount",
      "outputs": [
        {
          "internalType": "uint256",
          "name": "",
          "type": "uint256"
        }
      ],
      "stateMutability": "view",
      "type": "function"
    },
    {
      "inputs": [
        {
          "internalType": "uint256",
          "name": "id",
          "type": "uint256"
        }
      ],
      "name": "buyrequesteStatus",
      "outputs": [
        {
          "internalType": "bool",
          "name": "",
          "type": "bool"
        }
      ],
      "stateMutability": "view",
      "type": "function"
    },
    {
      "inputs": [
        {
          "internalType": "address",
          "name": "_address",
          "type": "address"
        }
      ],
      "name": "changeContractOwner",
      "outputs": [],
      "stateMutability": "nonpayable",
      "type": "function"
    },
    {
      "inputs": [
        {
          "internalType": "address",
          "name": "_address",
          "type": "address"
        }
      ],
      "name": "isContractOwner",
      "outputs": [
        {
          "internalType": "bool",
          "name": "",
          "type": "bool"
        }
      ],
      "stateMutability": "view",
      "type": "function"
    },
    {
      "inputs": [
        {
          "internalType": "address",
          "name": "_id",
          "type": "address"
        }
      ],
      "name": "isLandInspector",
      "outputs": [
        {
          "internalType": "bool",
          "name": "",
          "type": "bool"
        }
      ],
      "stateMutability": "view",
      "type": "function"
    },
    {
      "inputs": [
        {
          "internalType": "uint256",
          "name": "id",
          "type": "uint256"
        }
      ],
      "name": "isLandVerified",
      "outputs": [
        {
          "internalType": "bool",
          "name": "",
          "type": "bool"
        }
      ],
      "stateMutability": "view",
      "type": "function"
    },
    {
      "inputs": [
        {
          "internalType": "address",
          "name": "_addr",
          "type": "address"
        }
      ],
      "name": "isUserRegistered",
      "outputs": [
        {
          "internalType": "bool",
          "name": "",
          "type": "bool"
        }
      ],
      "stateMutability": "view",
      "type": "function"
    },
    {
      "inputs": [
        {
          "internalType": "address",
          "name": "id",
          "type": "address"
        }
      ],
      "name": "isUserVerified",
      "outputs": [
        {
          "internalType": "bool",
          "name": "",
          "type": "bool"
        }
      ],
      "stateMutability": "view",
      "type": "function"
    },
    {
      "inputs": [
        {
          "internalType": "uint256",
          "name": "",
          "type": "uint256"
        }
      ],
      "name": "lands",
      "outputs": [
        {
          "internalType": "uint256",
          "name": "id",
          "type": "uint256"
        },
        {
          "internalType": "address",
          "name": "landOwner",
          "type": "address"
        },
        {
          "internalType": "uint256",
          "name": "landArea",
          "type": "uint256"
        },
        {
          "internalType": "string",
          "name": "landAddress",
          "type": "string"
        },
        {
          "internalType": "string",
          "name": "surveyNumber",
          "type": "string"
        },
        {
          "internalType": "string",
          "name": "landDocument",
          "type": "string"
        },
        {
          "internalType": "bool",
          "name": "isLandVerified",
          "type": "bool"
        },
        {
          "internalType": "bool",
          "name": "isForSell",
          "type": "bool"
        }
      ],
      "stateMutability": "view",
      "type": "function"
    },
    {
      "inputs": [
        {
          "internalType": "uint256",
          "name": "id",
          "type": "uint256"
        }
      ],
      "name": "makeItNotforSell",
      "outputs": [],
      "stateMutability": "nonpayable",
      "type": "function"
    },
    {
      "inputs": [
        {
          "internalType": "uint256",
          "name": "id",
          "type": "uint256"
        }
      ],
      "name": "makeItforSell",
      "outputs": [],
      "stateMutability": "nonpayable",
      "type": "function"
    },
    {
      "inputs": [
        {
          "internalType": "address",
          "name": "id",
          "type": "address"
        }
      ],
      "name": "myAllLands",
      "outputs": [
        {
          "internalType": "uint256[]",
          "name": "",
          "type": "uint256[]"
        }
      ],
      "stateMutability": "view",
      "type": "function"
    },
    {
      "inputs": [],
      "name": "myReceivedLandRequests",
      "outputs": [
        {
          "internalType": "uint256[]",
          "name": "",
          "type": "uint256[]"
        }
      ],
      "stateMutability": "view",
      "type": "function"
    },
    {
      "inputs": [],
      "name": "mySentLandRequests",
      "outputs": [
        {
          "internalType": "uint256[]",
          "name": "",
          "type": "uint256[]"
        }
      ],
      "stateMutability": "view",
      "type": "function"
    },
    {
      "inputs": [
        {
          "internalType": "string",
          "name": "_name",
          "type": "string"
        },
        {
          "internalType": "string",
          "name": "_email",
          "type": "string"
        },
        {
          "internalType": "uint256",
          "name": "_age",
          "type": "uint256"
        },
        {
          "internalType": "string",
          "name": "_city",
          "type": "string"
        },
        {
          "internalType": "string",
          "name": "_aadharNumber",
          "type": "string"
        },
        {
          "internalType": "string",
          "name": "_panNumber",
          "type": "string"
        },
        {
          "internalType": "string",
          "name": "_document",
          "type": "string"
        }
      ],
      "name": "registerNewUser",
      "outputs": [],
      "stateMutability": "nonpayable",
      "type": "function"
    },
    {
      "inputs": [
        {
          "internalType": "uint256",
          "name": "_requestId",
          "type": "uint256"
        }
      ],
      "name": "rejectRequest",
      "outputs": [],
      "stateMutability": "nonpayable",
      "type": "function"
    },
    {
      "inputs": [
        {
          "internalType": "address",
          "name": "_adrs",
          "type": "address"
        }
      ],
      "name": "removeLandInspector",
      "outputs": [],
      "stateMutability": "nonpayable",
      "type": "function"
    },
    {
      "inputs": [
        {
          "internalType": "uint256",
          "name": "_landId",
          "type": "uint256"
        }
      ],
      "name": "requestforBuy",
      "outputs": [],
      "stateMutability": "nonpayable",
      "type": "function"
    },
    {
      "inputs": [],
      "name": "returnAllLandIncpectors",
      "outputs": [
        {
          "internalType": "address[]",
          "name": "",
          "type": "address[]"
        }
      ],
      "stateMutability": "view",
      "type": "function"
    },
    {
      "inputs": [
        {
          "internalType": "uint256",
          "name": "_requestId",
          "type": "uint256"
        },
        {
          "internalType": "string",
          "name": "documentUrl",
          "type": "string"
        }
      ],
      "name": "transferOwnership",
      "outputs": [
        {
          "internalType": "bool",
          "name": "",
          "type": "bool"
        }
      ],
      "stateMutability": "nonpayable",
      "type": "function"
    },
    {
      "inputs": [],
      "name": "transferRequestCount",
      "outputs": [
        {
          "internalType": "uint256",
          "name": "",
          "type": "uint256"
        }
      ],
      "stateMutability": "view",
      "type": "function"
    },
    {
      "inputs": [
        {
          "internalType": "uint256",
          "name": "id",
          "type": "uint256"
        }
      ],
      "name": "transferrequesteStatus",
      "outputs": [
        {
          "internalType": "bool",
          "name": "",
          "type": "bool"
        }
      ],
      "stateMutability": "view",
      "type": "function"
    },
    {
      "inputs": [],
      "name": "userCount",
      "outputs": [
        {
          "internalType": "uint256",
          "name": "",
          "type": "uint256"
        }
      ],
      "stateMutability": "view",
      "type": "function"
    },
    {
      "inputs": [
        {
          "internalType": "uint256",
          "name": "_id",
          "type": "uint256"
        }
      ],
      "name": "verifyLand",
      "outputs": [],
      "stateMutability": "nonpayable",
      "type": "function"
    },
    {
      "inputs": [
        {
          "internalType": "address",
          "name": "_userId",
          "type": "address"
        }
      ],
      "name": "verifyUser",
      "outputs": [],
      "stateMutability": "nonpayable",
      "type": "function"
    }
  ],
  "bytecode": "0x608060405234801561001057600080fd5b50600080546001600160a01b031916331790556126a0806100326000396000f3fe608060405234801561001057600080fd5b50600436106102265760003560e01c806394cffc5c11610130578063d3b368c0116100b8578063e261f1e51161007c578063e261f1e514610475578063e5c64c8f1461049c578063edf53886146104a4578063f9c43bdf146104cc578063fa024549146104df57610226565b8063d3b368c014610421578063d909ecd814610434578063de1176881461043c578063de26e7c91461044f578063e165af871461046257610226565b8063ace417e0116100ff578063ace417e0146103d8578063c26e11eb146103eb578063c4f291f9146103fe578063d196ebf214610406578063d2d50eab1461041957610226565b806394cffc5c146103995780639c32e3b4146103ac578063a43ec86214610254578063a519e910146103b457610226565b80634ba1f098116101b35780636cbf6cf8116101825780636cbf6cf8146103355780636d52fdd0146103485780637517e00f1461036b57806393a44f881461037e57806393e1d7a11461038657610226565b80634ba1f098146102e75780634d104352146102fa5780634d8131201461030d578063553a998d1461032057610226565b806323393d77116101fa57806323393d771461028f5780632653dbda146102a45780632d7788db146102b95780633ead67b5146102cc578063499701b2146102df57610226565b8062b9c80b1461022b57806307973ccf14610254578063163f75221461026957806317b73d041461027c575b600080fd5b61023e61023936600461219e565b6104f2565b60405161024b9190612340565b60405180910390f35b61025c61053b565b60405161024b9190612498565b61023e610277366004612009565b610541565b61023e61028a36600461202a565b610572565b6102976106e1565b60405161024b9190612308565b6102b76102b23660046120a5565b610761565b005b6102b76102c736600461219e565b61096a565b6102b76102da366004612009565b6109b4565b610297610a09565b6102b76102f536600461219e565b610a68565b6102b76103083660046121fb565b610bdd565b6102b761031b366004612009565b610d88565b610328610dc1565b60405161024b91906122bb565b61023e61034336600461219e565b610e4a565b61035b61035636600461219e565b610e62565b60405161024b94939291906124a1565b6102b7610379366004612009565b610e9c565b61025c6110d7565b61023e61039436600461219e565b6110dd565b6102b76103a736600461219e565b61111d565b61029761115f565b6103c76103c2366004612009565b6111be565b60405161024b9594939291906124ec565b61023e6103e6366004612009565b611307565b6102b76103f936600461219e565b611328565b61025c61136e565b610297610414366004612009565b611374565b61025c6113e0565b6102b761042f36600461219e565b6113e6565b610297611538565b61023e61044a366004612009565b6115b6565b61035b61045d36600461219e565b6115d5565b61023e610470366004612009565b61160f565b61048861048336600461219e565b611638565b60405161024b98979695949392919061253a565b610328611823565b6104b76104b2366004612009565b611899565b60405161024b9998979695949392919061234b565b6102b76104da36600461219e565b611c20565b61023e6104ed3660046121b6565b611c50565b600060016000838152600f60205260409020600290810154600160a01b900460ff169081111561053257634e487b7160e01b600052602160045260246000fd5b1490505b919050565b60015490565b6001600160a01b0381166000908152600c602052604081205460ff161561056a57506001610536565b506000610536565b600080546001600160a01b0316331461058d575060006106d9565b6000546001600160a01b031633146105a457600080fd5b6001600160a01b03851660008181526008602090815260408220805460ff19166001908117909155600790915260008051602061264b833981519152805480830182559083527fb2401e68d452ad3af4aed95d6e19d1a690ed00a9a5bee1b2b0a83b6028446a4f0180546001600160a01b0319169093179092558154919061062b83612603565b90915550506040805160a0810182526001805482526001600160a01b0388811660208085018281528587018b8152606087018b9052608087018a90526000938452600683529690922085518155915193820180546001600160a01b0319169490931693909317909155925180519293926106ab9260028501920190611ed8565b5060608201516003820155608082015180516106d1916004840191602090910190611ed8565b506001925050505b949350505050565b6001600052601360209081527f4155c2f711f2cdd34f8262ab8fb9b7020a700fe7b6948222152f7670d1fdf34d805460408051828502810185019091528181526060939092919083018282801561075757602002820191906000526020600020905b815481526020019060010190808311610743575b5050505050905090565b336000908152600c602052604090205460ff161561077e57600080fd5b336000908152600c60205260408120805460ff1916600117905560028054916107a683612603565b90915550507f72c6bfb7988af3a1efa6568f02a999bc52252641c659d85961ca3d372b57d5cf8054600181019091557ffc2858506235d5502cafdfae2dcc7804b97258f4d77357c39b0f2a32aa2e6a50018054336001600160a01b031991821681179092556002546000908152600a60209081526040808320805490941685179093558251610120810184528b81528082018b9052808401859052606081018a90526080810189905260a0810186905260c0810188905260e0810187905261010081018390529382526009815291902082518051919261088b92849290910190611ed8565b5060208281015180516108a49260018501920190611ed8565b5060408201516002820180546001600160a01b0319166001600160a01b0390921691909117905560608201516003820155608082015180516108f0916004840191602090910190611ed8565b5060a0820151805161090c916005840191602090910190611ed8565b5060c08201518051610928916006840191602090910190611ed8565b5060e08201518051610944916007840191602090910190611ed8565b5061010091909101516008909101805460ff191691151591909117905550505050505050565b6000818152601060205260409020600201546001600160a01b0316331461099057600080fd5b6000908152601060205260409020600201805460ff60a01b1916600160a11b179055565b6000546001600160a01b031633146109e75760405162461bcd60e51b81526004016109de9061242a565b60405180910390fd5b600080546001600160a01b0319166001600160a01b0392909216919091179055565b336000908152601160209081526040918290208054835181840281018401909452808452606093928301828280156107575760200282019190600052602060002090815481526020019060010190808311610743575050505050905090565b6000818152601060205260409020600201546001600160a01b03163314610a8e57600080fd5b6000818152601060205260408120600201805460ff60a01b1916600160a01b1790556005805491610abe83612603565b90915550506040805160808101825260008381526010602090815283822080548452338285019081526001918201546001600160a01b03908116868801908152606087018681526005548752600f9095529690942085518155905191810180549285166001600160a01b03199384161790559451600280870180549290951691909216178084559151939493929160ff60a01b191690600160a01b908490811115610b7957634e487b7160e01b600052602160045260246000fd5b021790555050601460205250506005547fb6c61a840592cc84133e4b25bd509abf4659307c57b160799b38490a5aa48f2c80546001810182556000919091527f2fdc54bebe143af21bc9f7874666206c3383b1c51a1a7063fa557c077952093e0155565b610be633611307565b610bef57600080fd5b60038054906000610bff83612603565b90915550506040805161010081018252600380548083523360208085019182528486018a8152606086018a8152608087018a905260a08701899052600060c0880181905260e08801819052948552600e8352969093208551815591516001830180546001600160a01b0319166001600160a01b039092169190911790559151600282015593518051939493610c9b938501929190910190611ed8565b5060808201518051610cb7916004840191602090910190611ed8565b5060a08201518051610cd3916005840191602090910190611ed8565b5060c08201516006909101805460e09093015115156101000261ff001992151560ff1990941693909317919091169190911790555050336000908152600d602090815260408220600380548254600181810185559386528486200155601390925290547f4155c2f711f2cdd34f8262ab8fb9b7020a700fe7b6948222152f7670d1fdf34d805492830181559092527f3ce2cb385edcbf7185fd469186dd769993781141b215a1a4715ebb7f94fd59ab01555050565b610d913361160f565b610d9a57600080fd5b6001600160a01b03166000908152600960205260409020600801805460ff19166001179055565b6001600052600b60209081527f72c6bfb7988af3a1efa6568f02a999bc52252641c659d85961ca3d372b57d5cf805460408051828502810185019091528181526060939092919083018282801561075757602002820191906000526020600020905b81546001600160a01b03168152600190910190602001808311610e23575050505050905090565b6000908152600e602052604090206006015460ff1690565b600f6020526000908152604090208054600182015460029092015490916001600160a01b039081169190811690600160a01b900460ff1684565b6000546001600160a01b03163314610ec65760405162461bcd60e51b81526004016109de90612461565b6001600160a01b03811660009081526008602052604090205460ff16610efe5760405162461bcd60e51b81526004016109de906123f3565b6001600160a01b03811660009081526008602090815260408220805460ff19169055600182526007905260008051602061264b83398151915254905b818110156110d2576001600052600760205260008051602061264b83398151915280546001600160a01b038516919083908110610f8757634e487b7160e01b600052603260045260246000fd5b6000918252602090912001546001600160a01b031614156110c05760016000819052600760205260008051602061264b83398151915290610fc890846125b1565b81548110610fe657634e487b7160e01b600052603260045260246000fd5b600091825260208083209091015460019092526007905260008051602061264b83398151915280546001600160a01b03909216918390811061103857634e487b7160e01b600052603260045260246000fd5b600091825260208083209190910180546001600160a01b0319166001600160a01b039490941693909317909255600190526007905260008051602061264b83398151915280548061109957634e487b7160e01b600052603160045260246000fd5b600082815260209020810160001990810180546001600160a01b03191690550190556110d2565b806110ca81612603565b915050610f3a565b505050565b60035490565b600060016000838152601060205260409020600290810154600160a01b900460ff169081111561053257634e487b7160e01b600052602160045260246000fd5b6000818152600e60205260409020600101546001600160a01b0316331461114357600080fd5b6000908152600e60205260409020600601805461ff0019169055565b336000908152601260209081526040918290208054835181840281018401909452808452606093928301828280156107575760200282019190600052602060002090815481526020019060010190808311610743575050505050905090565b60066020526000908152604090208054600182015460028301805492936001600160a01b03909216926111f0906125c8565b80601f016020809104026020016040519081016040528092919081815260200182805461121c906125c8565b80156112695780601f1061123e57610100808354040283529160200191611269565b820191906000526020600020905b81548152906001019060200180831161124c57829003601f168201915b505050505090806003015490806004018054611284906125c8565b80601f01602080910402602001604051908101604052809291908181526020018280546112b0906125c8565b80156112fd5780601f106112d2576101008083540402835291602001916112fd565b820191906000526020600020905b8154815290600101906020018083116112e057829003601f168201915b5050505050905085565b6001600160a01b031660009081526009602052604090206008015460ff1690565b6000818152600e60205260409020600101546001600160a01b0316331461134e57600080fd5b6000908152600e60205260409020600601805461ff001916610100179055565b60045490565b6001600160a01b0381166000908152600d60209081526040918290208054835181840281018401909452808452606093928301828280156113d457602002820191906000526020600020905b8154815260200190600101908083116113c0575b50505050509050919050565b60055490565b6113ef33611307565b80156113ff57506113ff81610e4a565b61140857600080fd5b6004805490600061141883612603565b9091555050604080516080810182526004548082523360208084019182526000868152600e82528581206001908101546001600160a01b039081168789019081526060880184815296845260109094529690912085518155925190830180549187166001600160a01b03199283161790559051600280840180549290971691909216178086559251939491939260ff60a01b191690600160a01b9084908111156114d257634e487b7160e01b600052602160045260246000fd5b021790555050506000908152600e602090815260408083206001908101546001600160a01b031684526011835281842060048054825480850184559287528587209092019190915533855260128452918420915482549182018355918452919092200155565b6001600052601460209081527fb6c61a840592cc84133e4b25bd509abf4659307c57b160799b38490a5aa48f2c80546040805182850281018501909152818152606093909291908301828280156107575760200282019190600052602060002090815481526020019060010190808311610743575050505050905090565b600080546001600160a01b038381169116141561056a57506001610536565b60106020526000908152604090208054600182015460029092015490916001600160a01b039081169190811690600160a01b900460ff1684565b6001600160a01b03811660009081526008602052604081205460ff161561056a57506001610536565b600e60205260009081526040902080546001820154600283015460038401805493946001600160a01b0390931693919291611672906125c8565b80601f016020809104026020016040519081016040528092919081815260200182805461169e906125c8565b80156116eb5780601f106116c0576101008083540402835291602001916116eb565b820191906000526020600020905b8154815290600101906020018083116116ce57829003601f168201915b505050505090806004018054611700906125c8565b80601f016020809104026020016040519081016040528092919081815260200182805461172c906125c8565b80156117795780601f1061174e57610100808354040283529160200191611779565b820191906000526020600020905b81548152906001019060200180831161175c57829003601f168201915b50505050509080600501805461178e906125c8565b80601f01602080910402602001604051908101604052809291908181526020018280546117ba906125c8565b80156118075780601f106117dc57610100808354040283529160200191611807565b820191906000526020600020905b8154815290600101906020018083116117ea57829003601f168201915b5050506006909301549192505060ff8082169161010090041688565b60016000526007602090815260008051602061264b8339815191528054604080518285028101850190915281815260609390929190830182828015610757576020028201919060005260206000209081546001600160a01b03168152600190910190602001808311610e23575050505050905090565b6009602052600090815260409020805481906118b4906125c8565b80601f01602080910402602001604051908101604052809291908181526020018280546118e0906125c8565b801561192d5780601f106119025761010080835404028352916020019161192d565b820191906000526020600020905b81548152906001019060200180831161191057829003601f168201915b505050505090806001018054611942906125c8565b80601f016020809104026020016040519081016040528092919081815260200182805461196e906125c8565b80156119bb5780601f10611990576101008083540402835291602001916119bb565b820191906000526020600020905b81548152906001019060200180831161199e57829003601f168201915b505050506002830154600384015460048501805494956001600160a01b0390931694919350906119ea906125c8565b80601f0160208091040260200160405190810160405280929190818152602001828054611a16906125c8565b8015611a635780601f10611a3857610100808354040283529160200191611a63565b820191906000526020600020905b815481529060010190602001808311611a4657829003601f168201915b505050505090806005018054611a78906125c8565b80601f0160208091040260200160405190810160405280929190818152602001828054611aa4906125c8565b8015611af15780601f10611ac657610100808354040283529160200191611af1565b820191906000526020600020905b815481529060010190602001808311611ad457829003601f168201915b505050505090806006018054611b06906125c8565b80601f0160208091040260200160405190810160405280929190818152602001828054611b32906125c8565b8015611b7f5780601f10611b5457610100808354040283529160200191611b7f565b820191906000526020600020905b815481529060010190602001808311611b6257829003601f168201915b505050505090806007018054611b94906125c8565b80601f0160208091040260200160405190810160405280929190818152602001828054611bc0906125c8565b8015611c0d5780601f10611be257610100808354040283529160200191611c0d565b820191906000526020600020905b815481529060010190602001808311611bf057829003601f168201915b5050506008909301549192505060ff1689565b611c293361160f565b611c3257600080fd5b6000908152600e60205260409020600601805460ff19166001179055565b6000611c5b3361160f565b611c6457600080fd5b6000838152600f6020908152604080832060028101805460ff60a01b1916600160a01b17908190556001600160a01b039081168552600d84528285208254815460018181018455928852958720909501949094559201549091168252812054905b81811015611e49576000858152600f6020908152604080832080546001909101546001600160a01b03168452600d909252909120805483908110611d1957634e487b7160e01b600052603260045260246000fd5b90600052602060002001541415611e37576000858152600f602090815260408083206001908101546001600160a01b03168452600d90925290912090611d5f90846125b1565b81548110611d7d57634e487b7160e01b600052603260045260246000fd5b6000918252602080832090910154878352600f82526040808420600101546001600160a01b03168452600d9092529120805483908110611dcd57634e487b7160e01b600052603260045260246000fd5b6000918252602080832090910192909255868152600f82526040808220600101546001600160a01b03168252600d90925220805480611e1c57634e487b7160e01b600052603160045260246000fd5b60019003818190600052602060002001600090559055611e49565b80611e4181612603565b915050611cc5565b506000848152600f60209081526040808320548352600e82529091208451611e7992600590920191860190611ed8565b505050600091825250600f6020908152604080832080548452600e909252808320600601805461ff0019169055600282015491548352909120600190810180546001600160a01b0319166001600160a01b039093169290921790915590565b828054611ee4906125c8565b90600052602060002090601f016020900481019282611f065760008555611f4c565b82601f10611f1f57805160ff1916838001178555611f4c565b82800160010185558215611f4c579182015b82811115611f4c578251825591602001919060010190611f31565b50611f58929150611f5c565b5090565b5b80821115611f585760008155600101611f5d565b80356001600160a01b038116811461053657600080fd5b600082601f830112611f98578081fd5b813567ffffffffffffffff80821115611fb357611fb3612634565b604051601f8301601f191681016020018281118282101715611fd757611fd7612634565b604052828152848301602001861015611fee578384fd5b82602086016020830137918201602001929092529392505050565b60006020828403121561201a578081fd5b61202382611f71565b9392505050565b6000806000806080858703121561203f578283fd5b61204885611f71565b9350602085013567ffffffffffffffff80821115612064578485fd5b61207088838901611f88565b945060408701359350606087013591508082111561208c578283fd5b5061209987828801611f88565b91505092959194509250565b600080600080600080600060e0888a0312156120bf578283fd5b873567ffffffffffffffff808211156120d6578485fd5b6120e28b838c01611f88565b985060208a01359150808211156120f7578485fd5b6121038b838c01611f88565b975060408a0135965060608a013591508082111561211f578485fd5b61212b8b838c01611f88565b955060808a0135915080821115612140578485fd5b61214c8b838c01611f88565b945060a08a0135915080821115612161578384fd5b61216d8b838c01611f88565b935060c08a0135915080821115612182578283fd5b5061218f8a828b01611f88565b91505092959891949750929550565b6000602082840312156121af578081fd5b5035919050565b600080604083850312156121c8578182fd5b82359150602083013567ffffffffffffffff8111156121e5578182fd5b6121f185828601611f88565b9150509250929050565b60008060008060808587031215612210578384fd5b84359350602085013567ffffffffffffffff8082111561222e578485fd5b61223a88838901611f88565b9450604087013591508082111561224f578384fd5b61225b88838901611f88565b9350606087013591508082111561208c578283fd5b60008151808452815b8181101561229557602081850181015186830182015201612279565b818111156122a65782602083870101525b50601f01601f19169290920160200192915050565b6020808252825182820181905260009190848201906040850190845b818110156122fc5783516001600160a01b0316835292840192918401916001016122d7565b50909695505050505050565b6020808252825182820181905260009190848201906040850190845b818110156122fc57835183529284019291840191600101612324565b901515815260200190565b600061012080835261235f8184018d612270565b90508281036020840152612373818c612270565b6001600160a01b038b166040850152606084018a90528381036080850152905061239d8189612270565b905082810360a08401526123b18188612270565b905082810360c08401526123c58187612270565b905082810360e08401526123d98186612270565b9150508215156101008301529a9950505050505050505050565b60208082526018908201527f4c616e6420496e73706563746f72206e6f7420666f756e640000000000000000604082015260600190565b60208082526019908201527f796f7520617265206e6f7420636f6e74726163744f776e657200000000000000604082015260600190565b60208082526019908201527f596f7520617265206e6f7420636f6e74726163744f776e657200000000000000604082015260600190565b90815260200190565b8481526001600160a01b0384811660208301528316604082015260808101600383106124dd57634e487b7160e01b600052602160045260246000fd5b82606083015295945050505050565b8581526001600160a01b038516602082015260a06040820181905260009061251690830186612270565b846060840152828103608084015261252e8185612270565b98975050505050505050565b8881526001600160a01b0388166020820152604081018790526101006060820181905260009061256c83820189612270565b905082810360808401526125808188612270565b905082810360a08401526125948187612270565b94151560c0840152505090151560e0909101529695505050505050565b6000828210156125c3576125c361261e565b500390565b6002810460018216806125dc57607f821691505b602082108114156125fd57634e487b7160e01b600052602260045260246000fd5b50919050565b60006000198214156126175761261761261e565b5060010190565b634e487b7160e01b600052601160045260246000fd5b634e487b7160e01b600052604160045260246000fdfeb39221ace053465ec3453ce2b36430bd138b997ecea25c1043da0c366812b828a2646970667358221220f36e13dcbb6b276ce57cc296c6dbf66b8e7744860d5d7262dcbf885a65475bde64736f6c63430008000033",
  "linkReferences": {},
  "deployedLinkReferences": {}
}